:020000040800F2
:10000000A8040020010100089F0E0008CF0D000881
:100010009D0E000891010008E51100080000000095
:10002000000000000000000000000000790F000840
:100030009301000800000000C10E00087B0F0008BB
:100040001B0100081B0100081B0100081B01000820
:100050001B0100081B0100081B0100081B01000810
:100060001B0100081B0100081B0100081B01000800
:100070001B0100081B0100081B0100081B010008F0
:100080001B0100081B0100081B0100081B010008E0
:100090001B0100081B0100081B0100081B010008D0
:1000A0001B0100081B0100081B0100081B010008C0
:1000B0001B0100081B010008000000001B010008D4
:1000C0001B01000800000000000000001B010008E8
:1000D000000000001B0100081B01000800000000D8
:1000E0001B0100081B0100081B010008DFF80CD0F1
:1000F00000F03CF80048004705120008A804002062
:100100000648804706480047FEE7FEE7FEE7FEE7B1
:10011000FEE7FEE7FEE7FEE7FEE7FEE7C90F0008A1
:10012000ED00000840EA01039B0703D009E008C97D
:10013000121F08C0042AFAD203E011F8013B00F8AC
:10014000013B521EF9D27047D2B201E000F8012BF8
:10015000491EFBD270470022F6E710B513460A4647
:1001600004461946FFF7F0FF204610BD064C074D28
:1001700006E0E06840F0010394E807009847103477
:10018000AC42F6D3FFF7B6FFE812000808130008E8
:10019000FEE7704770B5044600F0F2F80546601CB3
:1001A00002D004480078044400F0EAF8401BA04262
:1001B000FAD370BD000000202DE9F84FDFF894A1BC
:1001C00000220AF1040B14464FF0010C4FF00F0906
:1001D0000BF1040E0B680CFA04F52B40AB4271D105
:1001E0005D4E4F68A7EB0608B7422BD00DDC032FFE
:1001F00034D005DC37B3012F19D0022F2FD11BE0EB
:10020000112F16D0122F2AD119E0B8F5881F19D056
:1002100006DCB8F5803F15D0B8F5801F1FD111E07E
:10022000B8F5001F0ED0B8F5041F18D10AE0CA684F
:1002300015E0CA68121D12E0CA6808320FE0CA68E9
:100240000C320CE08A682AB1012A4FF0080203D070
:10025000456104E0042202E0056100E00022FF2B7A
:1002600001D8074601E000F104074FEA840601D9EE
:10027000A6F120063D6809FA06F825EA080502FA03
:1002800006F645EA06053D604D68ED005CD5334D48
:10029000AE6946F00106AE61AD6924F0030605F0D3
:1002A000010500952E4D7719BD68A607360F09FA8E
:1002B00006F825EA0805DFF8AC80404503D14FF089
:1002C000000810E040E0DFF8A080404502D14FF088
:1002D000010808E0DFF89480404502D14FF00208A1
:1002E00001E04FF0030808FA06F848EA0508C7F8E5
:1002F00008804D68ED0305D5DAF800501D43CAF8B3
:10030000005004E0DAF800609E43CAF800604D68CF
:10031000DBF80060AD035D4601D51E4300E09E435F
:100320002E604D68DEF80060ED02754601D51E4373
:1003300000E09E432E604D68AD020D4D2E6801D544
:100340001E4300E09E432E60641C102CFFF442AF5D
:10035000BDE8F88F000401400000111000100240B9
:100360000000014000080140000C01400010014065
:100370000C0401400AB1016170470904FBE7000069
:100380000148806870470000000000200248816832
:10039000027811448160704700000020074810B5C2
:1003A000016841F010010160032000F067F80020AF
:1003B00000F006F800F024F8002010BD00200240F4
:1003C00070B50D4D04464FF47A712878B1FBF0F00A
:1003D0000A490968B1FBF0F000F01EFC48B9102C86
:1003E00007D200222146501E00F028F800206C6041
:1003F00070BD012070BD0000000000200C00002036
:100400000C4808B5816941F001018161816901F001
:1004100001010091C16941F08051C161C06900F0E2
:10042000805000900448416821F0E06141F0806113
:10043000416008BD0010024000000140F0B40E4BC6
:100440001B680C46C3F30223C3F10705042D00D932
:100450000425191D072901D2002300E0DB1E012617
:1004600006FA05F1491E214099409E40761E16402D
:100470003143F0BC00F014BD0CED00E0064900F083
:10048000070208684FF6FF03184040EA0220034ABB
:1004900010430860704700000CED00E00000FA0512
:1004A0002DE9F047DFF8548105460E46D8F80000E4
:1004B00000F00700B0420CD2D8F8001021F007017C
:1004C0003143C8F80010D8F8000000F00700B0422F
:1004D0006FD128684A4C810712D5400703D5606860
:1004E00040F4E06060602878000703D5606840F45D
:1004F000605060606068A96820F0F00008436060A8
:100500002878C00744D06868012816D021680228DE
:1005100016D0890700294CDA616821F003010143F4
:100520006160FFF72DFF6968074641F288300129B5
:100530000ED00229814618D026E021688903E9E718
:100540008901E7E7FFF71CFFC11B494501D918E006
:1005500081466068C0F381000128F3D118E000BF34
:10056000FFF70EFFC11B49450BD86068C0F381003F
:100570000228F5D10CE000BFFFF702FFC11B49457F
:1005800002D90320BDE8F087606810F00C0FF3D1AA
:10059000D8F80010404601F00701B1420BD90168BC
:1005A00021F0070131430160006800F00700B0420C
:1005B00001D00120E6E72878400705D56068E968A2
:1005C00020F4E060084360602878000706D5606882
:1005D000296920F4605040EAC100606000F036F8FC
:1005E0006168084AC1F30311515CC84006490860BC
:1005F0000020FFF7E5FE0020C4E7000000200240D5
:1006000000100240D01200080C00002004480549E8
:1006100000684968044AC1F30221515CC840704730
:100620000C00002000100240E012000804480549B8
:1006300000684968044AC1F3C221515CC840704750
:100640000C00002000100240E012000812A185B04A
:100650000FC98DE80F0014A0144A00680490516877
:10066000134801F00C03042B10D0082B0ED1C1F35A
:100670008343C9031DF803000AD5516804AAC1F3D6
:100680004041515C0A4A5043B0FBF1F005B070475D
:1006900008494843FAE70000020304050607080971
:1006A0000A0B0C0D0E0F101001020000001002408A
:1006B00000127A0000093D002DE9F84F0446007849
:1006C000B94DC00748D06868C0F38100012807D041
:1006D0006868C0F38100022809D16868C00306D5A4
:1006E0002868800338D5606800286FD034E06068DF
:1006F000B0F5803F0BD010B1B0F5A02F11D0286815
:1007000020F480302860286820F4802002E02868E7
:1007100040F480302860606888B1FFF731FE0646FB
:1007200009E0286840F480202860F0E7FFF728FE01
:10073000801B642875D828688003F7D50CE0FFF784
:100740001FFE064605E000BFFFF71AFE801B642867
:10075000F0D828688003F7D42078944E80074FF0B3
:1007600001094FF000083BD5686810F00C0F07D066
:100770006868C0F38100022809D16868C00306D404
:100780002868800714D5206901281FD110E020694E
:10079000B0B1C6F80090FFF7F3FD074605E000BFD3
:1007A000FFF7EEFDC01B0228C4D828688007F7D5E4
:1007B0002868616920F0F80040EAC10028600FE075
:1007C000C6F80080FFF7DCFD074606E0E9E000BF61
:1007D000FFF7D6FDC01B022823D828688007F7D46E
:1007E000207800072CD57248A169D9B1C0F80090D3
:1007F000FFF7C6FD074604E0FFF7C2FDC01B022855
:100800000FD8686A8007F7D56A484FF4FA51006834
:10081000B0FBF1F0009000BF0098411E0091FAD2A9
:100820000EE080E0C0F80080FFF7AAFD074604E074
:10083000FFF7A6FDC01B022875D8686A8007F7D4A9
:100840002078400760D5E8690027C00008D4E8692F
:1008500040F08050E861E869012700F08050009086
:1008600055480168C90513D40168834641F4807175
:100870000160FFF785FD824606E000BFFFF780FDBF
:10088000A0EB0A0064284ED8DBF80000C005F5D5BF
:10089000E06801280AD008B1052813D0286A20F0A2
:1008A00001002862286A20F0040002E0286A40F073
:1008B00001002862E06841F2883B98B1FFF760FDD3
:1008C00082460BE0286A40F004002862EEE700BF91
:1008D000FFF756FDA0EB0A0159455AD8286A800750
:1008E000F6D50CE0FFF74CFD824605E0FFF748FD2A
:1008F000A0EB0A0159454CD8286A8007F6D41FB1ED
:10090000E86920F08050E861E06988B36968C1F364
:100910008101022945D00228C6F8608004D0FFF783
:100920002FFD044638E034E0FFF72AFD074604E0D7
:10093000FFF726FDC01B02282BD828688001F7D4BA
:10094000206AB0F5803F05D16868A16820F40030C6
:1009500008436860D4E908010843696821F4741108
:1009600008436860C6F86090FFF70AFD044606E099
:1009700015E000BFFFF704FD001B022809D8286816
:100980008001F7D50BE000BFFFF7FAFC001B02283F
:1009900002D90320BDE8F88F28688001F4D4002034
:1009A000F8E70120F6E70000001002400000424294
:1009B000800442420C0000200070004070B504002A
:1009C00005D00025A56294F8510010B104E0012083
:1009D00070BD204600F034F8022084F851002068F1
:1009E000016821F040010160D4E901010843D4E924
:1009F00003121143084361690843218B01F400711C
:100A00000843E1690843216A0843A16A0843216851
:100A10000860A069042101EA1040616A0843216866
:100A200048602168E06A08612068C16921F40061BA
:100A3000C1616565012084F85100002070BD00008F
:100A400030B585B0002400940194029403940068AA
:100A50001449884223D11448816941F4805181614D
:100A6000816901F480510491816941F0040181613F
:100A700080690E4D00F004000490A0200090022038
:100A800001900320039069462846FFF795FB40201C
:100A9000CDE90004694628460294FFF78DFB05B0B6
:100AA00030BD00000030014000100240000801404D
:100AB0002DE9F84F044690F8500000269946174655
:100AC0000D4601280DD04FF0010B84F850B0FFF710
:100AD00057FC804694F85100B246012804D0022603
:100AE00094E00220BDE8F88F002D7BD0002F79D054
:100AF000032084F85100C4F854A02563A786E78634
:100B0000C4F838A0A4F83CA0A4F83EA0C4F844A0BF
:100B1000C4F840A0A068B0F5004F04D12068016877
:100B200041F48041016020680168490603D40168EE
:100B300041F040010160E068B0F5006F606804D0EA
:100B400030B3E08E012823D03EE010B1E08E0128C2
:100B50001AD135F8021B206805E0206881688907F2
:100B600006D535F8021BC160E08E401EE0860BE022
:100B7000B9F1000F34D0B9F1FF3F05D0FFF700FC09
:100B8000A0EB080149452BD2E08E0028E5D11EE0FC
:100B9000216815F8010B087306E020688168890751
:100BA00006D515F8011B0173E08E401EE0860BE0B0
:100BB000B9F1000F14D0B9F1FF3F05D0FFF7E0FB0A
:100BC000A0EB080149450BD2E08E0028E5D14B4649
:100BD000012202212046CDF8008000F082F910B1F8
:100BE000032613E011E042464946204600F069F929
:100BF00018B101262020606508E0A06818B92068B7
:100C0000C16880680090606D00B1012684F851B021
:100C100084F850A0304665E710B5401EB0F1807FE3
:100C200001D3012010BD4FF0E02460610F21601757
:100C300000F036F90020A06107202061002010BDDF
:100C400070B5040004D094F83900002510B106E016
:100C5000012070BD84F83850204600F023F824208D
:100C600084F839002068C16821F40051C160204631
:100C700000F0CEF92068016921F4904101612068FB
:100C8000416921F02A0141612068C16841F40051A5
:100C9000C160E563202084F8390084F83A00002020
:100CA00070BD000030B585B000240094019402941A
:100CB000039400681449884224D11448816941F49E
:100CC00080418161816901F480410491816941F031
:100CD0000401816180690E4D00F0040004904FF41E
:100CE000007000900220019003200390694628467E
:100CF000FFF762FA2815CDE90004694628460294F8
:100D0000FFF75AFA05B030BD00380140001002402C
:100D1000000801402DE9F843044690F839001F46C9
:100D200016460D46202850D1A5B19EB194F8380042
:100D300001284AD0012084F838004FF00008C4F898
:100D40003C80212084F83900FFF71AFBA6848146F5
:100D5000E68426E00120BDE8F883E08C401EE084B4
:100D6000A0684B46B0F5805F4FF000024FF0800165
:100D70002046009703D000F003FAE8B90DE000F038
:100D8000FFF9C8B928882168C0F3080048602069C5
:100D900008B16D1C05E0AD1C03E0216815F8010BDE
:100DA0004860E08C0028D8D14B46002240212046E4
:100DB000009700F0E5F908B10320CCE7202084F883
:100DC000390084F838800020C5E70220C3E7FEE739
:100DD0002DE9F04385B0002420480094019402944A
:100DE0000394816941F004018161816901F004018A
:100DF0000491816941F0080181618069DFF86080B8
:100E000000F008000490012210214046FFF7B2FADA
:100E10000122DFF85090970339464846FFF7AAFAB7
:100E2000102001250226CDE90005CDE902466946DC
:100E30004046FFF7C1F900970396CDE90154694692
:100E40004846FFF7B9F9E803CDE90004694648468A
:100E50000294FFF7B1F905B0BDE8F083001002403D
:100E600000080140000C01400B480A494FF4007291
:100E700001604FF48271416000218160C1600161B5
:100E8000C0E90512C1610162416281620A21C16249
:100E9000FFF794BD0030014010000020FEE77047CE
:100EA0000907090E002806DA00F00F0000F1E02023
:100EB00080F8141D704700F1E02080F8001470479E
:100EC000704738B50B46009204460022802100F09E
:100ED00008F8002804D0606D40F020006065032011
:100EE00038BD2DE9F0411D4617460E460446DDF893
:100EF000188035E0681C33D02DB1FFF741FAA0EB24
:100F00000800A8422CD32068416821F0E00141602C
:100F10006068B0F5827F0BD1A068B0F5004F02D0B9
:100F2000B0F5806F04D12068016821F040010160B4
:100F3000A06AB0F5005F0AD1206801684DF6FF7223
:100F4000114001602068016841F4005101600120F6
:100F500084F85100002084F850000320BDE8F0819F
:100F60002068806836EA000004D00020B842C1D171
:100F70000020F3E70120F9E77047FFF707BA30B523
:100F80008FB028216846FFF7E6F814210AA8FFF77A
:100F9000E2F802250120049000951020059000241D
:100FA0004FF4E010CDE9084007956846FFF784FB51
:100FB0000F200A90CDE90B540D9401210AA80E943C
:100FC000FFF76EFA0FB030BD0D48016841F0010126
:100FD000016041680B4A1140416001680A4A1140B2
:100FE0000160016821F480210160416821F4FE0163
:100FF00041604FF41F0181600449C00308607047DD
:10100000001002400000FFF8FFFFF6FE08ED00E0D0
:101010002DE9F041044600680169E26821F440517D
:10102000114301612169A06808436169084321688F
:10103000CA6841F20C639A430243CA60206841695E
:10104000A26921F44071114341614C492068642533
:10105000322688423CD1FFF7E9FA00EBC00101EBF0
:10106000001061688900B0FBF1F7FFF7DFFA00EBD1
:10107000C00101EB00106168B0468900B0FBF1F0DF
:10108000B0FBF5F06FF01801484307EB800106EB69
:101090000110B0FBF5F000F0F006FFF7C7FA00EB27
:1010A000C00101EB001061688900B0FBF1F0B0FBFA
:1010B000F5F006EB0016FFF7B9FA00EBC00101EB03
:1010C000001061688900B0FBF1F7FFF7AFFA3BE071
:1010D000FFF79CFA00EBC00101EB0010616889008A
:1010E000B0FBF1F7FFF792FA00EBC00101EB001043
:1010F0006168B0468900B0FBF1F0B0FBF5F06FF02D
:101100001801484307EB800106EB0110B0FBF5F036
:1011100000F0F006FFF77AFA00EBC00101EB0010D7
:1011200061688900B0FBF1F0B0FBF5F006EB00164A
:10113000FFF76CFA00EBC00101EB00106168890059
:10114000B0FBF1F7FFF762FA00EBC00101EB001012
:1011500061688900B0FBF1F0B0FBF5F06FF01801A9
:10116000484307EB800108EB0110B0FBF5F0216864
:1011700000F00F0030448860BDE8F0810038014085
:101180002DE9F041984617460E460446069D1DE09F
:10119000681C1BD02DB1FFF7F3F8A0EB0800A842A4
:1011A00014D92068C16821F4D071C16020684169F8
:1011B00021F001014161202084F8390084F83A00CF
:1011C000002084F838000320BDE8F0812068006822
:1011D00036EA000004D00020B842D9D00020F3E75E
:1011E0000120F9E7FEE702E008C8121F08C1002A43
:1011F000FAD170477047002001E001C1121F002A98
:10120000FBD1704788B0FFF7C9F8FFF7B8FEFFF7CA
:10121000DFFDFFF729FE244822490C2201604FF42C
:10122000E131416000218160C160C0E90412816147
:10123000C161FFF705FD14221CA16846FEF772FF8D
:101240001FA13223D1E90001CDE90501132269462E
:101250001548FFF75FFD1C4C1C4D4FF480460122E2
:1012600031462046FFF786F83220FEF793FF002232
:1012700010212846FFF77EF80B48FF23052205A919
:101280005838FFF715FC012210212846FFF772F8A5
:10129000002231462046FFF76DF83220FEF77AFF34
:1012A000DDE700000038014068000020506C6561F7
:1012B000736520696E70757420646174613A000012
:1012C0003132333435000000000C01400008014089
:1012D00000000000000000000102030406070809E6
:1012E00000000000010203040813000800000020B1
:1012F00010000000E611000818130008100000207C
:1013000098040000F6110008010000001000000021
:081310000000000000A24A04E5
:04000005080000ED02
:00000001FF
